:100000000C9457000C9474000C9474000C948900A8
:100010000C9474000C9474000C9474000C94740090
:100020000C9474000C9474000C9474000C94740080
:100030000C9474000C9474000C9474000C94740070
:100040000C9474000C9474000C9474000C94740060
:100050000C94740008000000BE922449123EABAA22
:10006000AA2ABECDCCCC4C3E00000080BEABAAAAD2
:10007000AA3E00000000BF000000803F000000001A
:1000800000084178D3BB4387D1133D190E3CC3BD53
:100090004282AD2B3E68EC8276BED98FE1A93E4C00
:1000A00080EFFFBE01C4FF7F3F000000000011246D
:1000B0001FBECFE5D4E0DEBFCDBF10E0A0E6B0E0CC
:1000C000ECE5FAE002C005900D92A036B107D9F731
:1000D00020E0A0E6B0E001C01D92A13DB207E1F72B
:1000E0000E94F1000C942C050C94000085B58C60E6
:1000F00085BD8CE783BD89B7806889BF14BC109229
:100100006000109261001092620010926300789477
:1001100008951F920F920FB60F9211242F933F93C1
:100120004F935F936F937F938F939F93AF93BF93FF
:10013000EF93FF938091600090916100A091620025
:10014000B09163000196A11DB11D80936000909352
:100150006100A0936200B09363000E944101FF918F
:10016000EF91BF91AF919F918F917F916F915F912F
:100170004F913F912F910F900FBE0F901F901895A8
:100180002FEF2093670020936600DC01CB01880FDE
:10019000991FAA1FBB1F880F991FAA1FBB1F9C0175
:1001A000AD01220F331F441F551F60E072E18AE743
:1001B00090E00E940A052150310969F030BD88E0C5
:1001C00089B986E880BD8AB188618AB98BB18260BD
:1001D0008BB981E0089580E008955D9BFECF8CB9D6
:1001E00008958AB382608ABB60E072EC81E090E09F
:1001F0000E94C0000E94630288248A94912CA12C42
:10020000B12CCC24C394EE24E39400E010E020E071
:1002100040E061E081E00E9467010E9476008091E9
:10022000600090916100A0916200B09163000A9714
:10023000A105B105A4F31092600010926100109224
:100240006200109263009BB382E089278BBB0E94FF
:10025000AC010E94140220E030E040E251E40E9430
:1002600068040E945B03EB01C63282E0D80710F0FD
:10027000C6E2D2E08D2F0E94ED008C2F0E94ED008F
:10028000CECF08958823A9F08BB38E7F8BBB83E8F4
:100290000E9473028FEF0E9473028FEF0E9473021D
:1002A00080E00E94730280E00E9473028BB3816041
:1002B0008BBB8BB38E7F8BBB80E80E9473028091D7
:1002C000CC000E9473028BB381608BBB08958F9228
:1002D0009F92AF92BF92CF92EF92CF93DF93CDB721
:1002E000DEB7882311F090E801C090E0662311F09A
:1002F00080E401C080E0892B442311F090E201C02A
:1003000090E0892B222311F090E101C090E0892B2D
:10031000EE2011F092E001C090E0892B91E0C11035
:1003200001C090E0892B8093CC00B092CA00A092CB
:10033000C9009092C8008092C70081E00E944201EB
:10034000DF91CF91EF90CF90BF90AF909F908F9023
:1003500008958091C4000895CF93DF938BB38E7F6F
:100360008BBB80E00E94730280E00E947702809342
:10037000C30080E00E94770290E0C92FD82F80E070
:100380000E947702C82BD695C795D093D000C09312
:10039000CF0080E00E94770290E0C92FD82F80E044
:1003A0000E947702C82BD093CE00C093CD0080E08E
:1003B0000E94770290E0C92FD82F80E00E94770238
:1003C000C82BD093C600C093C50080E00E9477027E
:1003D0008093C4008BB381608BBB8091CF009091E0
:1003E000D000892B21F08091C400882319F081E08E
:1003F0000E9442010E94A901DF91CF91089560916E
:10040000CF007091D00080E090E00E948A0320E04D
:1004100030EA4CE856E40E94680420E03EEF4FEFDB
:1004200056E40E94E90208958F929F92AF92BF9284
:10043000CF92DF92EF92FF920E94FF010E94200470
:100440006B017C019B01AC010E9468049B01AC0123
:10045000C701B6010E9468044B015C0125E030EA47
:1004600046E759E3C701B6010E9468042AEE34E862
:1004700046E85AE30E947D026B017C012DE53EE7D0
:100480004FE953E3C501B4010E9468049B01AC012C
:10049000C701B6010E947D029B01AC0160E070E0E3
:1004A00080E89FE30E94E90223E333E948E853E44C
:1004B0000E947C02FF90EF90DF90CF90BF90AF90B2
:1004C0009F908F9008958AB381608ABB87B38061C3
:1004D00087BB87B3806A87BB8DB185658DB98EB1C7
:1004E0008E7F8EB908958FB9779BFECF08958FB90F
:1004F000779BFECF8FB108955058BB27AA270E9443
:1005000094020C94DE030E94D00338F00E94D703BB
:1005100020F039F49F3F19F426F40C94CD030EF427
:10052000E095E7FB0C94C703E92F0E94EF0358F313
:10053000BA17620773078407950720F079F4A6F5C8
:100540000C9411040EF4E0950B2EBA2FA02D0B0184
:10055000B90190010C01CA01A0011124FF27591B08
:1005600099F0593F50F4503E68F11A16F040A22F0E
:10057000232F342F4427585FF3CF4695379527957F
:10058000A795F0405395C9F77EF41F16BA0B620B7E
:10059000730B840BBAF09150A1F0FF0FBB1F661FC5
:1005A000771F881FC2F70EC0BA0F621F731F841F08
:1005B00048F4879577956795B795F7959E3F08F02E
:1005C000B0CF9395880F08F09927EE0F97958795F0
:1005D00008950E94FD020C94DE030E94D70358F098
:1005E0000E94D00340F029F45F3F29F00C94C70328
:1005F00051110C9412040C94CD030E94EF0368F384
:100600009923B1F3552391F3951B550BBB27AA27CB
:1006100062177307840738F09F5F5F4F220F331F05
:10062000441FAA1FA9F335D00E2E3AF0E0E832D0CD
:1006300091505040E695001CCAF72BD0FE2F29D0D0
:10064000660F771F881FBB1F261737074807AB07A2
:10065000B0E809F0BB0B802DBF01FF2793585F4F17
:100660003AF09E3F510578F00C94C7030C941204A5
:100670005F3FE4F3983ED4F3869577956795B795F9
:10068000F7959F5FC9F7880F911D9695879597F904
:100690000895E1E0660F771F881FBB1F621773077D
:1006A0008407BA0720F0621B730B840BBA0BEE1F92
:1006B00088F7E09508950E94F70388F09F5798F017
:1006C000B92F9927B751B0F0E1F0660F771F881F57
:1006D000991F1AF0BA95C9F714C0B13091F00E9471
:1006E0001104B1E008950C941104672F782F882726
:1006F000B85F39F0B93FCCF3869577956795B39598
:10070000D9F73EF490958095709561957F4F8F4F06
:100710009F4F0895E89409C097FB3EF4909580950B
:10072000709561957F4F8F4F9F4F9923A9F0F92FB7
:1007300096E9BB279395F695879577956795B79535
:10074000F111F8CFFAF4BB0F11F460FF1BC06F5F1B
:100750007F4F8F4F9F4F16C0882311F096E911C02D
:10076000772321F09EE8872F762F05C0662371F04E
:1007700096E8862F70E060E02AF09A95660F771F62
:10078000881FDAF7880F9695879597F9089597F956
:100790009F6780E870E060E008959FEF80EC089527
:1007A00000240A9416161706180609060895002450
:1007B0000A9412161306140605060895092E0394CA
:1007C000000C11F4882352F0BB0F40F4BF2B11F43E
:1007D00060FF04C06F5F7F4F8F4F9F4F089557FD9D
:1007E0009058440F551F59F05F3F71F04795880F9F
:1007F00097FB991F61F09F3F79F087950895121636
:1008000013061406551FF2CF4695F1DF08C01616E1
:1008100017061806991FF1CF869571056105089492
:100820000895E894BB2766277727CB0197F90895A9
:1008300016F00C94D5040C94CD0368940C94C70363
:100840000E94F703A8F39923C1F3AEF3DF93CF938C
:100850001F930F93FF92C92FDD2788232AF021973A
:10086000660F771F881FDAF720E030E040E85FEB83
:100870009FE3883920F0803E38F021968F770E94E0
:100880007D02E4E5F0E004C00E947D02E1E8F0E0D2
:100890000E94E3048B01BE01EC01FB2E6F5771092E
:1008A0007595771F880B990B0E948C0328E132E71E
:1008B00041E35FE30E947B04AF2D9801AE01FF90FE
:1008C0000F911F91CF91DF910E9494020C94DE034F
:1008D0000E947B040C94DE030E94D00338F00E9437
:1008E000D70320F0952311F00C94C7030C94CD038B
:1008F00011240C9412040E94EF0370F3959FC1F32E
:10090000950F50E0551F629FF001729FBB27F00DBD
:10091000B11D639FAA27F00DB11DAA1F649F662712
:10092000B00DA11D661F829F2227B00DA11D621F61
:10093000739FB00DA11D621F839FA00D611D221F1B
:10094000749F3327A00D611D231F849F600D211DFF
:10095000822F762F6A2F11249F5750409AF0F1F082
:1009600088234AF0EE0FFF1FBB1F661F771F881FEB
:1009700091505040A9F79E3F510580F00C94C70359
:100980000C9412045F3FE4F3983ED4F38695779578
:100990006795B795F795E7959F5FC1F7FE2B880F91
:1009A000911D9695879597F908959F3F31F0915045
:1009B00020F4879577956795B795880F911D969543
:1009C000879597F90895DF93CF931F930F93FF9225
:1009D000EF92DF927B018C01689406C0DA2EEF0162
:1009E0000E947B04FE01E894A591259135914591E3
:1009F0005591A6F3EF010E949402FE019701A80110
:100A0000DA9469F7DF90EF90FF900F911F91CF91EB
:100A1000DF910895A1E21A2EAA1BBB1BFD010DC098
:100A2000AA1FBB1FEE1FFF1FA217B307E407F5079E
:100A300020F0A21BB30BE40BF50B661F771F881F7A
:100A4000991F1A9469F760957095809590959B0110
:0C0A5000AC01BD01CF010895F894FFCF68
:00000001FF
