:100000000C942A000C943C000C943C000C943C0092
:100010000C943C000C943C000C943C000C943C0070
:100020000C943C000C943C000C943C000C943C0060
:100030000C943C000C943C000C943C000C943C0050
:100040000C943C000C943C000C943C000C943C0040
:100050000C943C0011241FBECFE5D4E0DEBFCDBF21
:1000600020E0A0E6B0E001C01D92AD36B207E1F796
:100070000E943E000C94CB000C9400000E94B7003C
:1000800088248A94912CA12CB12CCC24C394EE24E6
:10009000E39400E010E020E040E061E081E00E94B5
:1000A0007500FFCFCF938823B9F083E80E94C70083
:1000B000C09165008C2F0E94C700809164008C2B3A
:1000C0000E94C700C09167008C2F0E94C7008091DA
:1000D00066008C2B0E94C70080E80E94C7008091B8
:1000E00068000E94C700CF9108958F929F92AF92AF
:1000F000BF92CF92EF92CF93DF93CDB7DEB7882335
:1001000011F090E801C090E0662311F080E401C096
:1001100080E0892B442311F090E201C090E0892B0C
:10012000222311F090E101C090E0892BEE2011F024
:1001300092E001C090E0892B91E0C11001C090E0F5
:10014000892B80936800B0926700A092660090921D
:1001500065008092640081E00E945200DF91CF919F
:10016000EF90CF90BF90AF909F908F9008958AB3FB
:1001700080618ABB87B3816087BB87B3806A87BB96
:100180008DB185658DB98EB18E7F8EB908958FB989
:0A019000779BFECF0895F894FFCF8F
:00000001FF
